S016000050726F6A6563745F4D61737465722E737265636C
S11300000C942A000C943F000C943F000C943F0085
S11300100C943F000C943F000C943F000C943F0060
S11300200C943F000C943F000C943F000C943F0050
S11300300C943F000C943F000C943F000C943F0040
S11300400C943F000C943F000C943F000C943F0030
S11300500C943F0011241FBECFE5D8E0DEBFCDBF16
S113006010E0A0E6B0E0E2E2F5E002C005900D92F7
S1130070AA36B107D9F70E940E020C948F020C9491
S11300800000442319F04130C9F10895813091F002
S113009028F08230D9F0833029F108952AB381E021
S11300A090E002C0880F991F6A95E2F78095822339
S11300B08ABB089527B381E090E002C0880F991F9E
S11300C06A95E2F78095822387BB089524B381E083
S11300D090E002C0880F991F6A95E2F78095822309
S11300E084BB089521B381E090E002C0880F991F7A
S11300F06A95E2F78095822381BB0895813089F067
S113010028F08230C9F0833011F108952AB381E0D8
S113011090E002C0880F991F6A95E2F7822B8ABB90
S1130120089527B381E090E002C0880F991F6A9573
S1130130E2F7822B87BB089524B381E090E002C0EC
S1130140880F991F6A95E2F7822B84BB089521B327
S113015081E090E002C0880F991F6A95E2F7822B34
S113016081BB0895442319F04130C9F108958130C9
S113017091F028F08230D9F0833029F108952BB31F
S113018081E090E002C0880F991F6A95E2F780959C
S113019082238BBB089528B381E090E002C0880FCE
S11301A0991F6A95E2F78095822388BB089525B349
S11301B081E090E002C0880F991F6A95E2F780956C
S11301C0822385BB089522B381E090E002C0880FAA
S11301D0991F6A95E2F78095822382BB0895813046
S11301E089F028F08230C9F0833011F108952BB3DF
S11301F081E090E002C0880F991F6A95E2F7822B94
S11302008BBB089528B381E090E002C0880F991F4A
S11302106A95E2F7822B88BB089525B381E090E0CC
S113022002C0880F991F6A95E2F7822B85BB089557
S113023022B381E090E002C0880F991F6A95E2F72B
S1130240822B82BB0895CF93C82F40E061E081E008
S11302500E94B20040E062E081E00E94B20040E00F
S113026063E081E00E94B2008BB39C2F907F8F707B
S1130270892B8BBB41E063E081E00E94B20087EEF2
S113028093E00197F1F700C0000040E063E081E0F3
S11302900E94B2002BB330E1C39FC0011124922FFE
S11302A09F70892B8BBB41E063E081E00E94B20028
S11302B087EE93E00197F1F700C0000040E063E0AF
S11302C081E00E94B20087E893E10197F1F700C052
S11302D00000CF91089541E061E081E00E94410077
S11302E041E062E081E00E94410041E063E081E09E
S11302F00E94410041E064E080E00E94410041E04E
S113030065E080E00E94410041E066E080E00E94F8
S1130310410041E067E080E00E9441002FE788E36C
S113032091E0215080409040E1F700C0000082E05D
S11303300E94230183E30E94230182E30E9423019C
S113034088E20E9423018CE00E94230181E00E9444
S1130350230186E00E9423010895CF93C82F41E032
S113036061E081E00E94B20040E062E081E00E942E
S1130370B20040E063E081E00E94B2008BB39C2FA6
S1130380907F8F70892B8BBB41E063E081E00E94FA
S1130390B20087EE93E00197F1F700C0000040E05F
S11303A063E081E00E94B2002BB330E1C39FC0013F
S11303B01124922F9F70892B8BBB41E063E081E075
S11303C00E94B20087EE93E00197F1F700C00000AD
S11303D040E063E081E00E94B20087E893E1019786
S11303E0F1F700C00000CF91089581E00E9423013D
S11303F00895CF93DF93EC018881882361F087EE21
S113040093E00197F1F700C0000089910E94AD01CB
S113041088818111F4CFDF91CF9108950E946B01FF
S11304200E9483020E9476020E9481020E94F501CA
S113043080E690E00E94F9012FEF88E09DE32150CF
S113044080409040E1F700C000000E94F5018AB3AB
S11304508F608ABB8BB3807F8BBBCFE00E948B0203
S11304608233E9F028F4803341F0813379F0F6CF18
S11304708333F9F0843339F1F1CF0E94F50180E33D
S11304800E94AD0180E30E947D02E8CF0E94F50145
S113049081E30E94AD0181E30E947D02DFCF0E94CF
S11304A0F501DA9A82E30E94AD0182E30E947D02A3
S11304B0D5CF0E94F501CBBB83E30E94AD0183E35A
S11304C00E947D02CBCF0E94F5011BBA84E30E94F7
S11304D0AD0184E30E947D022FEF8EE994E2215066
S11304E080409040E1F700C00000B8CFBD9ABE98AC
S11304F0BF9ABC9A83E58DB908958FB9779BFECFD7
S11305000895C498089588E18AB986E880BD83E394
S113051089B910BC08955F9BFECF8CB10895F894FF
S1050520FFCF07
S10D052248656C6C6F202E2E20003B
S9030000FC
